{"abi":[{"type":"constructor","inputs":[],"stateMutability":"nonpayable"},{"type":"function","name":"BORROW_TYPEHASH","inputs":[],"outputs":[{"name":"","type":"bytes32","internalType":"bytes32"}],"stateMutability":"view"},{"type":"function","name":"MINT_TYPEHASH","inputs":[],"outputs":[{"name":"","type":"bytes32","internalType":"bytes32"}],"stateMutability":"view"},{"type":"function","name":"REDEEM_TYPEHASH","inputs":[],"outputs":[{"name":"","type":"bytes32","internalType":"bytes32"}],"stateMutability":"view"},{"type":"function","name":"REPAY_TYPEHASH","inputs":[],"outputs":[{"name":"","type":"bytes32","internalType":"bytes32"}],"stateMutability":"view"},{"type":"function","name":"borrowWithIntent","inputs":[{"name":"user","type":"address","internalType":"address"},{"name":"cToken","type":"address","internalType":"address"},{"name":"amount","type":"uint256","internalType":"uint256"},{"name":"deadline","type":"uint256","internalType":"uint256"},{"name":"signature","type":"bytes","internalType":"bytes"}],"outputs":[],"stateMutability":"nonpayable"},{"type":"function","name":"eip712Domain","inputs":[],"outputs":[{"name":"fields","type":"bytes1","internalType":"bytes1"},{"name":"name","type":"string","internalType":"string"},{"name":"version","type":"string","internalType":"string"},{"name":"chainId","type":"uint256","internalType":"uint256"},{"name":"verifyingContract","type":"address","internalType":"address"},{"name":"salt","type":"bytes32","internalType":"bytes32"},{"name":"extensions","type":"uint256[]","internalType":"uint256[]"}],"stateMutability":"view"},{"type":"function","name":"mintWithIntent","inputs":[{"name":"user","type":"address","internalType":"address"},{"name":"cToken","type":"address","internalType":"address"},{"name":"amount","type":"uint256","internalType":"uint256"},{"name":"deadline","type":"uint256","internalType":"uint256"},{"name":"signature","type":"bytes","internalType":"bytes"}],"outputs":[],"stateMutability":"nonpayable"},{"type":"function","name":"nonces","inputs":[{"name":"","type":"address","internalType":"address"}],"outputs":[{"name":"","type":"uint256","internalType":"uint256"}],"stateMutability":"view"},{"type":"function","name":"redeemUnderlyingWithIntent","inputs":[{"name":"user","type":"address","internalType":"address"},{"name":"cToken","type":"address","internalType":"address"},{"name":"amount","type":"uint256","internalType":"uint256"},{"name":"deadline","type":"uint256","internalType":"uint256"},{"name":"signature","type":"bytes","internalType":"bytes"}],"outputs":[],"stateMutability":"nonpayable"},{"type":"function","name":"repayBorrowWithIntent","inputs":[{"name":"user","type":"address","internalType":"address"},{"name":"cToken","type":"address","internalType":"address"},{"name":"amount","type":"uint256","internalType":"uint256"},{"name":"deadline","type":"uint256","internalType":"uint256"},{"name":"signature","type":"bytes","internalType":"bytes"}],"outputs":[],"stateMutability":"nonpayable"},{"type":"event","name":"EIP712DomainChanged","inputs":[],"anonymous":false},{"type":"error","name":"ECDSAInvalidSignature","inputs":[]},{"type":"error","name":"ECDSAInvalidSignatureLength","inputs":[{"name":"length","type":"uint256","internalType":"uint256"}]},{"type":"error","name":"ECDSAInvalidSignatureS","inputs":[{"name":"s","type":"bytes32","internalType":"bytes32"}]},{"type":"error","name":"InvalidShortString","inputs":[]},{"type":"error","name":"StringTooLong","inputs":[{"name":"str","type":"string","internalType":"string"}]}],"bytecode":{"object":"0x610160604052348015610010575f5ffd5b50604080518082018252601081526f2232b3b2b72632b7322932b630bcb2b960811b602080830191909152825180840190935260018352603160f81b908301529061005b825f610104565b6101205261006a816001610104565b61014052815160208084019190912060e052815190820120610100524660a0526100f660e05161010051604080517f8b73c3c69bb8fe3d512ecc4cf759cc79239f7b179b0ffacaa9a75d522b39400f60208201529081019290925260608201524660808201523060a08201525f9060c00160405160208183030381529060405280519060200120905090565b60805250503060c052610326565b5f60208351101561011f5761011883610136565b9050610130565b8161012a8482610214565b5060ff90505b92915050565b5f5f829050601f81511115610169578260405163305a27a960e01b815260040161016091906102ce565b60405180910390fd5b805161017482610303565b179392505050565b634e487b7160e01b5f52604160045260245ffd5b600181811c908216806101a457607f821691505b6020821081036101c257634e487b7160e01b5f52602260045260245ffd5b50919050565b601f82111561020f57805f5260205f20601f840160051c810160208510156101ed5750805b601f840160051c820191505b8181101561020c575f81556001016101f9565b50505b505050565b81516001600160401b0381111561022d5761022d61017c565b6102418161023b8454610190565b846101c8565b6020601f821160018114610273575f831561025c5750848201515b5f19600385901b1c1916600184901b17845561020c565b5f84815260208120601f198516915b828110156102a25787850151825560209485019460019092019101610282565b50848210156102bf57868401515f19600387901b60f8161c191681555b50505050600190811b01905550565b602081525f82518060208401528060208501604085015e5f604082850101526040601f19601f83011684010191505092915050565b805160208083015191908110156101c2575f1960209190910360031b1b16919050565b60805160a05160c05160e0516101005161012051610140516113616103775f395f610c4501525f610c1401525f610e4701525f610e1f01525f610d7a01525f610da401525f610dce01526113615ff3fe608060405234801561000f575f5ffd5b506004361061009b575f3560e01c806398c8ccb81161006357806398c8ccb81461013b578063b73135c914610162578063d4afeb4c14610175578063f76fc35e1461019c578063fa94a8c8146101c3575f5ffd5b806333852acc1461009f5780637ecebe00146100b457806384b0196e146100e657806385a998791461010157806396b4ab8f14610128575b5f5ffd5b6100b26100ad3660046110df565b6101d6565b005b6100d36100c2366004611184565b60026020525f908152604090205481565b6040519081526020015b60405180910390f35b6100ee6104e2565b6040516100dd97969594939291906111d4565b6100d37f55d95f7c16c0e067ff25252a64965cff7c801fe2ac52e49dc7934011ae1b20ee81565b6100b26101363660046110df565b610524565b6100d37f13e7e9c109e70b6acae16d4bb76d4015eb86f8de6f5433db8b0810e29356738781565b6100b26101703660046110df565b610692565b6100d37f8170bf90dd98dc905b0b962914c7b3e248aa8d5dc36a93be5380099cd5b0b6c981565b6100d37f2bcd1c776b8a7b71bddb70351824935def05616f58060ee6cc966e2f80a5c56281565b6100b26101d13660046110df565b6108bb565b6102058686868686867f2bcd1c776b8a7b71bddb70351824935def05616f58060ee6cc966e2f80a5c562610aa0565b5f856001600160a01b0316636f307dc36040518163ffffffff1660e01b8152600401602060405180830381865afa158015610242573d5f5f3e3d5ffd5b505050506040513d601f19601f82011682018060405250810190610266919061126a565b6040516323b872dd60e01b81526001600160a01b03898116600483015230602483015260448201889052919250908216906323b872dd906064016020604051808303815f875af11580156102bc573d5f5f3e3d5ffd5b505050506040513d601f19601f820116820180604052508101906102e09190611285565b5060405163095ea7b360e01b81526001600160a01b0387811660048301526024820187905282169063095ea7b3906044016020604051808303815f875af115801561032d573d5f5f3e3d5ffd5b505050506040513d601f19601f820116820180604052508101906103519190611285565b5060405163140e25ad60e31b8152600481018690526001600160a01b0387169063a0712d68906024016020604051808303815f875af1158015610396573d5f5f3e3d5ffd5b505050506040513d601f19601f820116820180604052508101906103ba91906112a4565b156103fa5760405162461bcd60e51b815260206004820152600b60248201526a135a5b9d0819985a5b195960aa1b60448201526064015b60405180910390fd5b6040516370a0823160e01b81523060048201526001600160a01b0387169063a9059cbb90899083906370a08231906024015b602060405180830381865afa158015610447573d5f5f3e3d5ffd5b505050506040513d601f19601f8201168201806040525081019061046b91906112a4565b6040516001600160e01b031960e085901b1681526001600160a01b03909216600483015260248201526044015b6020604051808303815f875af11580156104b4573d5f5f3e3d5ffd5b505050506040513d601f19601f820116820180604052508101906104d89190611285565b5050505050505050565b5f6060805f5f5f60606104f3610c0d565b6104fb610c3e565b604080515f80825260208201909252600f60f81b9b939a50919850469750309650945092509050565b6105538686868686867f13e7e9c109e70b6acae16d4bb76d4015eb86f8de6f5433db8b0810e293567387610aa0565b60405163317afabb60e21b8152600481018590526001600160a01b0386169063c5ebeaec906024016020604051808303815f875af1158015610597573d5f5f3e3d5ffd5b505050506040513d601f19601f820116820180604052508101906105bb91906112a4565b156105f85760405162461bcd60e51b815260206004820152600d60248201526c109bdc9c9bddc819985a5b1959609a1b60448201526064016103f1565b5f856001600160a01b0316636f307dc36040518163ffffffff1660e01b8152600401602060405180830381865afa158015610635573d5f5f3e3d5ffd5b505050506040513d601f19601f82011682018060405250810190610659919061126a565b60405163a9059cbb60e01b81526001600160a01b038981166004830152602482018890529192509082169063a9059cbb90604401610498565b6106c18686868686867f8170bf90dd98dc905b0b962914c7b3e248aa8d5dc36a93be5380099cd5b0b6c9610aa0565b5f856001600160a01b0316636f307dc36040518163ffffffff1660e01b8152600401602060405180830381865afa1580156106fe573d5f5f3e3d5ffd5b505050506040513d601f19601f82011682018060405250810190610722919061126a565b6040516323b872dd60e01b81526001600160a01b03898116600483015230602483015260448201889052919250908216906323b872dd906064016020604051808303815f875af1158015610778573d5f5f3e3d5ffd5b505050506040513d601f19601f8201168201806040525081019061079c9190611285565b5060405163095ea7b360e01b81526001600160a01b0387811660048301526024820187905282169063095ea7b3906044016020604051808303815f875af11580156107e9573d5f5f3e3d5ffd5b505050506040513d601f19601f8201168201806040525081019061080d9190611285565b5060405163073a938160e11b8152600481018690526001600160a01b03871690630e752702906024016020604051808303815f875af1158015610852573d5f5f3e3d5ffd5b505050506040513d601f19601f8201168201806040525081019061087691906112a4565b156108b25760405162461bcd60e51b815260206004820152600c60248201526b14995c185e4819985a5b195960a21b60448201526064016103f1565b50505050505050565b6108ea8686868686867f55d95f7c16c0e067ff25252a64965cff7c801fe2ac52e49dc7934011ae1b20ee610aa0565b6040516323b872dd60e01b81526001600160a01b038781166004830152306024830152604482018690528616906323b872dd906064016020604051808303815f875af115801561093c573d5f5f3e3d5ffd5b505050506040513d601f19601f820116820180604052508101906109609190611285565b5060405163852a12e360e01b8152600481018590526001600160a01b0386169063852a12e3906024016020604051808303815f875af11580156109a5573d5f5f3e3d5ffd5b505050506040513d601f19601f820116820180604052508101906109c991906112a4565b15610a065760405162461bcd60e51b815260206004820152600d60248201526c14995919595b4819985a5b1959609a1b60448201526064016103f1565b5f856001600160a01b0316636f307dc36040518163ffffffff1660e01b8152600401602060405180830381865afa158015610a43573d5f5f3e3d5ffd5b505050506040513d601f19601f82011682018060405250810190610a67919061126a565b6040516370a0823160e01b81523060048201529091506001600160a01b0382169063a9059cbb90899083906370a082319060240161042c565b83421115610ae15760405162461bcd60e51b815260206004820152600e60248201526d125b9d195b9d08195e1c1a5c995960921b60448201526064016103f1565b6001600160a01b0387165f90815260026020526040812080549082610b05836112bb565b909155506040805160208082018690526001600160a01b038c8116838501528b166060830152608082018a905260a0820184905260c08083018a90528351808403909101815260e090920190925280519101209091505f610b6582610c6b565b90505f610ba987878080601f0160208091040260200160405190810160405280939291908181526020018383808284375f920191909152508693925050610c9d9050565b90508a6001600160a01b0316816001600160a01b031614610c005760405162461bcd60e51b8152602060048201526011602482015270496e76616c6964207369676e617475726560781b60448201526064016103f1565b5050505050505050505050565b6060610c397f00000000000000000000000000000000000000000000000000000000000000005f610cc5565b905090565b6060610c397f00000000000000000000000000000000000000000000000000000000000000006001610cc5565b5f610c97610c77610d6e565b8360405161190160f01b8152600281019290925260228201526042902090565b92915050565b5f5f5f5f610cab8686610e97565b925092509250610cbb8282610ee0565b5090949350505050565b606060ff8314610cdf57610cd883610f9c565b9050610c97565b818054610ceb906112df565b80601f0160208091040260200160405190810160405280929190818152602001828054610d17906112df565b8015610d625780601f10610d3957610100808354040283529160200191610d62565b820191905f5260205f20905b815481529060010190602001808311610d4557829003601f168201915b50505050509050610c97565b5f306001600160a01b037f000000000000000000000000000000000000000000000000000000000000000016148015610dc657507f000000000000000000000000000000000000000000000000000000000000000046145b15610df057507f000000000000000000000000000000000000000000000000000000000000000090565b610c39604080517f8b73c3c69bb8fe3d512ecc4cf759cc79239f7b179b0ffacaa9a75d522b39400f60208201527f0000000000000000000000000000000000000000000000000000000000000000918101919091527f000000000000000000000000000000000000000000000000000000000000000060608201524660808201523060a08201525f9060c00160405160208183030381529060405280519060200120905090565b5f5f5f8351604103610ece576020840151604085015160608601515f1a610ec088828585610fd9565b955095509550505050610ed9565b505081515f91506002905b9250925092565b5f826003811115610ef357610ef3611317565b03610efc575050565b6001826003811115610f1057610f10611317565b03610f2e5760405163f645eedf60e01b815260040160405180910390fd5b6002826003811115610f4257610f42611317565b03610f635760405163fce698f760e01b8152600481018290526024016103f1565b6003826003811115610f7757610f77611317565b03610f98576040516335e2f38360e21b8152600481018290526024016103f1565b5050565b60605f610fa8836110a1565b6040805160208082528183019092529192505f91906020820181803683375050509182525060208101929092525090565b5f80807f7fffffffffffffffffffffffffffffff5d576e7357a4501ddfe92f46681b20a084111561101257505f91506003905082611097565b604080515f808252602082018084528a905260ff891692820192909252606081018790526080810186905260019060a0016020604051602081039080840390855afa158015611063573d5f5f3e3d5ffd5b5050604051601f1901519150506001600160a01b03811661108e57505f925060019150829050611097565b92505f91508190505b9450945094915050565b5f60ff8216601f811115610c9757604051632cd44ac360e21b815260040160405180910390fd5b6001600160a01b03811681146110dc575f5ffd5b50565b5f5f5f5f5f5f60a087890312156110f4575f5ffd5b86356110ff816110c8565b9550602087013561110f816110c8565b94506040870135935060608701359250608087013567ffffffffffffffff811115611138575f5ffd5b8701601f81018913611148575f5ffd5b803567ffffffffffffffff81111561115e575f5ffd5b89602082840101111561116f575f5ffd5b60208201935080925050509295509295509295565b5f60208284031215611194575f5ffd5b813561119f816110c8565b9392505050565b5f81518084528060208401602086015e5f602082860101526020601f19601f83011685010191505092915050565b60ff60f81b8816815260e060208201525f6111f260e08301896111a6565b828103604084015261120481896111a6565b606084018890526001600160a01b038716608085015260a0840186905283810360c0850152845180825260208087019350909101905f5b8181101561125957835183526020938401939092019160010161123b565b50909b9a5050505050505050505050565b5f6020828403121561127a575f5ffd5b815161119f816110c8565b5f60208284031215611295575f5ffd5b8151801515811461119f575f5ffd5b5f602082840312156112b4575f5ffd5b5051919050565b5f600182016112d857634e487b7160e01b5f52601160045260245ffd5b5060010190565b600181811c908216806112f357607f821691505b60208210810361131157634e487b7160e01b5f52602260045260245ffd5b50919050565b634e487b7160e01b5f52602160045260245ffdfea26469706673582212208c97e915b36b46ea246a30e5081b539a0f3c4e42db5e07e70438d8256ea9b49464736f6c634300081c0033","linkReferences":{}},"methodIdentifiers":{"BORROW_TYPEHASH()":"98c8ccb8","MINT_TYPEHASH()":"f76fc35e","REDEEM_TYPEHASH()":"85a99879","REPAY_TYPEHASH()":"d4afeb4c","borrowWithIntent(address,address,uint256,uint256,bytes)":"96b4ab8f","eip712Domain()":"84b0196e","mintWithIntent(address,address,uint256,uint256,bytes)":"33852acc","nonces(address)":"7ecebe00","redeemUnderlyingWithIntent(address,address,uint256,uint256,bytes)":"fa94a8c8","repayBorrowWithIntent(address,address,uint256,uint256,bytes)":"b73135c9"},"id":2}